{
  "_format": "hh-sol-artifact-1",
  "contractName": "TokenMaster",
  "sourceName": "contracts/TokenMaster.sol",
  "abi": [
    {
      "inputs": [
        {
          "internalType": "string",
          "name": "_name",
          "type": "string"
        },
        {
          "internalType": "string",
          "name": "_symbol",
          "type": "string"
        }
      ],
      "stateMutability": "nonpayable",
      "type": "constructor"
    },
    {
      "anonymous": false,
      "inputs": [
        {
          "indexed": true,
          "internalType": "address",
          "name": "owner",
          "type": "address"
        },
        {
          "indexed": true,
          "internalType": "address",
          "name": "approved",
          "type": "address"
        },
        {
          "indexed": true,
          "internalType": "uint256",
          "name": "tokenId",
          "type": "uint256"
        }
      ],
      "name": "Approval",
      "type": "event"
    },
    {
      "anonymous": false,
      "inputs": [
        {
          "indexed": true,
          "internalType": "address",
          "name": "owner",
          "type": "address"
        },
        {
          "indexed": true,
          "internalType": "address",
          "name": "operator",
          "type": "address"
        },
        {
          "indexed": false,
          "internalType": "bool",
          "name": "approved",
          "type": "bool"
        }
      ],
      "name": "ApprovalForAll",
      "type": "event"
    },
    {
      "anonymous": false,
      "inputs": [
        {
          "indexed": true,
          "internalType": "address",
          "name": "from",
          "type": "address"
        },
        {
          "indexed": true,
          "internalType": "address",
          "name": "to",
          "type": "address"
        },
        {
          "indexed": true,
          "internalType": "uint256",
          "name": "tokenId",
          "type": "uint256"
        }
      ],
      "name": "Transfer",
      "type": "event"
    },
    {
      "inputs": [
        {
          "internalType": "address",
          "name": "to",
          "type": "address"
        },
        {
          "internalType": "uint256",
          "name": "tokenId",
          "type": "uint256"
        }
      ],
      "name": "approve",
      "outputs": [],
      "stateMutability": "nonpayable",
      "type": "function"
    },
    {
      "inputs": [
        {
          "internalType": "address",
          "name": "owner",
          "type": "address"
        }
      ],
      "name": "balanceOf",
      "outputs": [
        {
          "internalType": "uint256",
          "name": "",
          "type": "uint256"
        }
      ],
      "stateMutability": "view",
      "type": "function"
    },
    {
      "inputs": [
        {
          "internalType": "uint256",
          "name": "tokenId",
          "type": "uint256"
        }
      ],
      "name": "getApproved",
      "outputs": [
        {
          "internalType": "address",
          "name": "",
          "type": "address"
        }
      ],
      "stateMutability": "view",
      "type": "function"
    },
    {
      "inputs": [
        {
          "internalType": "uint256",
          "name": "_id",
          "type": "uint256"
        }
      ],
      "name": "getOcassion",
      "outputs": [
        {
          "components": [
            {
              "internalType": "uint256",
              "name": "id",
              "type": "uint256"
            },
            {
              "internalType": "string",
              "name": "name",
              "type": "string"
            },
            {
              "internalType": "uint256",
              "name": "cost",
              "type": "uint256"
            },
            {
              "internalType": "uint256",
              "name": "tickets",
              "type": "uint256"
            },
            {
              "internalType": "uint256",
              "name": "maxTickets",
              "type": "uint256"
            },
            {
              "internalType": "string",
              "name": "date",
              "type": "string"
            },
            {
              "internalType": "string",
              "name": "time",
              "type": "string"
            },
            {
              "internalType": "string",
              "name": "location",
              "type": "string"
            }
          ],
          "internalType": "struct TokenMaster.Ocassion",
          "name": "",
          "type": "tuple"
        }
      ],
      "stateMutability": "view",
      "type": "function"
    },
    {
      "inputs": [
        {
          "internalType": "uint256",
          "name": "_id",
          "type": "uint256"
        }
      ],
      "name": "getSeatsTaken",
      "outputs": [
        {
          "internalType": "uint256[]",
          "name": "",
          "type": "uint256[]"
        }
      ],
      "stateMutability": "view",
      "type": "function"
    },
    {
      "inputs": [
        {
          "internalType": "uint256",
          "name": "",
          "type": "uint256"
        },
        {
          "internalType": "address",
          "name": "",
          "type": "address"
        }
      ],
      "name": "hasBought",
      "outputs": [
        {
          "internalType": "bool",
          "name": "",
          "type": "bool"
        }
      ],
      "stateMutability": "view",
      "type": "function"
    },
    {
      "inputs": [
        {
          "internalType": "address",
          "name": "owner",
          "type": "address"
        },
        {
          "internalType": "address",
          "name": "operator",
          "type": "address"
        }
      ],
      "name": "isApprovedForAll",
      "outputs": [
        {
          "internalType": "bool",
          "name": "",
          "type": "bool"
        }
      ],
      "stateMutability": "view",
      "type": "function"
    },
    {
      "inputs": [
        {
          "internalType": "string",
          "name": "_name",
          "type": "string"
        },
        {
          "internalType": "uint256",
          "name": "_cost",
          "type": "uint256"
        },
        {
          "internalType": "uint256",
          "name": "_maxTickets",
          "type": "uint256"
        },
        {
          "internalType": "string",
          "name": "_date",
          "type": "string"
        },
        {
          "internalType": "string",
          "name": "_time",
          "type": "string"
        },
        {
          "internalType": "string",
          "name": "_location",
          "type": "string"
        }
      ],
      "name": "list",
      "outputs": [],
      "stateMutability": "nonpayable",
      "type": "function"
    },
    {
      "inputs": [
        {
          "internalType": "uint256",
          "name": "_id",
          "type": "uint256"
        },
        {
          "internalType": "uint256",
          "name": "_seat",
          "type": "uint256"
        }
      ],
      "name": "mint",
      "outputs": [],
      "stateMutability": "payable",
      "type": "function"
    },
    {
      "inputs": [],
      "name": "name",
      "outputs": [
        {
          "internalType": "string",
          "name": "",
          "type": "string"
        }
      ],
      "stateMutability": "view",
      "type": "function"
    },
    {
      "inputs": [],
      "name": "owner",
      "outputs": [
        {
          "internalType": "address",
          "name": "",
          "type": "address"
        }
      ],
      "stateMutability": "view",
      "type": "function"
    },
    {
      "inputs": [
        {
          "internalType": "uint256",
          "name": "tokenId",
          "type": "uint256"
        }
      ],
      "name": "ownerOf",
      "outputs": [
        {
          "internalType": "address",
          "name": "",
          "type": "address"
        }
      ],
      "stateMutability": "view",
      "type": "function"
    },
    {
      "inputs": [
        {
          "internalType": "address",
          "name": "from",
          "type": "address"
        },
        {
          "internalType": "address",
          "name": "to",
          "type": "address"
        },
        {
          "internalType": "uint256",
          "name": "tokenId",
          "type": "uint256"
        }
      ],
      "name": "safeTransferFrom",
      "outputs": [],
      "stateMutability": "nonpayable",
      "type": "function"
    },
    {
      "inputs": [
        {
          "internalType": "address",
          "name": "from",
          "type": "address"
        },
        {
          "internalType": "address",
          "name": "to",
          "type": "address"
        },
        {
          "internalType": "uint256",
          "name": "tokenId",
          "type": "uint256"
        },
        {
          "internalType": "bytes",
          "name": "data",
          "type": "bytes"
        }
      ],
      "name": "safeTransferFrom",
      "outputs": [],
      "stateMutability": "nonpayable",
      "type": "function"
    },
    {
      "inputs": [
        {
          "internalType": "uint256",
          "name": "",
          "type": "uint256"
        },
        {
          "internalType": "uint256",
          "name": "",
          "type": "uint256"
        }
      ],
      "name": "seatTaken",
      "outputs": [
        {
          "internalType": "address",
          "name": "",
          "type": "address"
        }
      ],
      "stateMutability": "view",
      "type": "function"
    },
    {
      "inputs": [
        {
          "internalType": "address",
          "name": "operator",
          "type": "address"
        },
        {
          "internalType": "bool",
          "name": "approved",
          "type": "bool"
        }
      ],
      "name": "setApprovalForAll",
      "outputs": [],
      "stateMutability": "nonpayable",
      "type": "function"
    },
    {
      "inputs": [
        {
          "internalType": "bytes4",
          "name": "interfaceId",
          "type": "bytes4"
        }
      ],
      "name": "supportsInterface",
      "outputs": [
        {
          "internalType": "bool",
          "name": "",
          "type": "bool"
        }
      ],
      "stateMutability": "view",
      "type": "function"
    },
    {
      "inputs": [],
      "name": "symbol",
      "outputs": [
        {
          "internalType": "string",
          "name": "",
          "type": "string"
        }
      ],
      "stateMutability": "view",
      "type": "function"
    },
    {
      "inputs": [
        {
          "internalType": "uint256",
          "name": "tokenId",
          "type": "uint256"
        }
      ],
      "name": "tokenURI",
      "outputs": [
        {
          "internalType": "string",
          "name": "",
          "type": "string"
        }
      ],
      "stateMutability": "view",
      "type": "function"
    },
    {
      "inputs": [],
      "name": "totalOccasions",
      "outputs": [
        {
          "internalType": "uint256",
          "name": "",
          "type": "uint256"
        }
      ],
      "stateMutability": "view",
      "type": "function"
    },
    {
      "inputs": [],
      "name": "totalSupply",
      "outputs": [
        {
          "internalType": "uint256",
          "name": "",
          "type": "uint256"
        }
      ],
      "stateMutability": "view",
      "type": "function"
    },
    {
      "inputs": [
        {
          "internalType": "address",
          "name": "from",
          "type": "address"
        },
        {
          "internalType": "address",
          "name": "to",
          "type": "address"
        },
        {
          "internalType": "uint256",
          "name": "tokenId",
          "type": "uint256"
        }
      ],
      "name": "transferFrom",
      "outputs": [],
      "stateMutability": "nonpayable",
      "type": "function"
    },
    {
      "inputs": [],
      "name": "withdraw",
      "outputs": [],
      "stateMutability": "nonpayable",
      "type": "function"
    }
  ],
  "bytecode": "0x60806040523480156200001157600080fd5b50604051620039f0380380620039f0833981810160405281019062000037919062000303565b8181816000908051906020019062000051929190620000b6565b5080600190805190602001906200006a929190620000b6565b50505033600660006101000a81548173ffffffffffffffffffffffffffffffffffffffff021916908373ffffffffffffffffffffffffffffffffffffffff1602179055505050620003ed565b828054620000c490620003b7565b90600052602060002090601f016020900481019282620000e8576000855562000134565b82601f106200010357805160ff191683800117855562000134565b8280016001018555821562000134579182015b828111156200013357825182559160200191906001019062000116565b5b50905062000143919062000147565b5090565b5b808211156200016257600081600090555060010162000148565b5090565b6000604051905090565b600080fd5b600080fd5b600080fd5b600080fd5b6000601f19601f8301169050919050565b7f4e487b7100000000000000000000000000000000000000000000000000000000600052604160045260246000fd5b620001cf8262000184565b810181811067ffffffffffffffff82111715620001f157620001f062000195565b5b80604052505050565b60006200020662000166565b9050620002148282620001c4565b919050565b600067ffffffffffffffff82111562000237576200023662000195565b5b620002428262000184565b9050602081019050919050565b60005b838110156200026f57808201518184015260208101905062000252565b838111156200027f576000848401525b50505050565b60006200029c620002968462000219565b620001fa565b905082815260208101848484011115620002bb57620002ba6200017f565b5b620002c88482856200024f565b509392505050565b600082601f830112620002e857620002e76200017a565b5b8151620002fa84826020860162000285565b91505092915050565b600080604083850312156200031d576200031c62000170565b5b600083015167ffffffffffffffff8111156200033e576200033d62000175565b5b6200034c85828601620002d0565b925050602083015167ffffffffffffffff81111562000370576200036f62000175565b5b6200037e85828601620002d0565b9150509250929050565b7f4e487b7100000000000000000000000000000000000000000000000000000000600052602260045260246000fd5b60006002820490506001821680620003d057607f821691505b60208210811415620003e757620003e662000388565b5b50919050565b6135f380620003fd6000396000f3fe6080604052600436106101405760003560e01c806370a08231116100b6578063a22cb4651161006f578063a22cb46514610461578063af296da11461048a578063b88d4fde146104c7578063c87b56dd146104f0578063e9403dba1461052d578063e985e9c51461056a57610140565b806370a082311461033d5780638da5cb5b1461037a578063953865c1146103a557806395d89b41146103d05780639a382f0f146103fb5780639cb04aef1461042457610140565b806318160ddd1161010857806318160ddd146102505780631b2ef1ca1461027b57806323b872dd146102975780633ccfd60b146102c057806342842e0e146102d75780636352211e1461030057610140565b806301ffc9a71461014557806306fdde0314610182578063081812fc146101ad578063095ea7b3146101ea5780630ef7ec7414610213575b600080fd5b34801561015157600080fd5b5061016c600480360381019061016791906123c4565b6105a7565b604051610179919061240c565b60405180910390f35b34801561018e57600080fd5b50610197610689565b6040516101a491906124c0565b60405180910390f35b3480156101b957600080fd5b506101d460048036038101906101cf9190612518565b61071b565b6040516101e19190612586565b60405180910390f35b3480156101f657600080fd5b50610211600480360381019061020c91906125cd565b610761565b005b34801561021f57600080fd5b5061023a60048036038101906102359190612518565b610879565b60405161024791906126cb565b60405180910390f35b34801561025c57600080fd5b506102656108e4565b60405161027291906126fc565b60405180910390f35b61029560048036038101906102909190612717565b6108ea565b005b3480156102a357600080fd5b506102be60048036038101906102b99190612757565b610b26565b005b3480156102cc57600080fd5b506102d5610b86565b005b3480156102e357600080fd5b506102fe60048036038101906102f99190612757565b610c7b565b005b34801561030c57600080fd5b5061032760048036038101906103229190612518565b610c9b565b6040516103349190612586565b60405180910390f35b34801561034957600080fd5b50610364600480360381019061035f91906127aa565b610d22565b60405161037191906126fc565b60405180910390f35b34801561038657600080fd5b5061038f610dda565b60405161039c9190612586565b60405180910390f35b3480156103b157600080fd5b506103ba610e00565b6040516103c791906126fc565b60405180910390f35b3480156103dc57600080fd5b506103e5610e06565b6040516103f291906124c0565b60405180910390f35b34801561040757600080fd5b50610422600480360381019061041d919061290c565b610e98565b005b34801561043057600080fd5b5061044b60048036038101906104469190612a09565b611002565b604051610458919061240c565b60405180910390f35b34801561046d57600080fd5b5061048860048036038101906104839190612a75565b611031565b005b34801561049657600080fd5b506104b160048036038101906104ac9190612717565b611047565b6040516104be9190612586565b60405180910390f35b3480156104d357600080fd5b506104ee60048036038101906104e99190612b56565b611089565b005b3480156104fc57600080fd5b5061051760048036038101906105129190612518565b6110eb565b60405161052491906124c0565b60405180910390f35b34801561053957600080fd5b50610554600480360381019061054f9190612518565b611153565b6040516105619190612ce8565b60405180910390f35b34801561057657600080fd5b50610591600480360381019061058c9190612d0a565b6113f1565b60405161059e919061240c565b60405180910390f35b60007f80ac58cd000000000000000000000000000000000000000000000000000000007bffffffffffffffffffffffffffffffffffffffffffffffffffffffff1916827bffffffffffffffffffffffffffffffffffffffffffffffffffffffff1916148061067257507f5b5e139f000000000000000000000000000000000000000000000000000000007bffffffffffffffffffffffffffffffffffffffffffffffffffffffff1916827bffffffffffffffffffffffffffffffffffffffffffffffffffffffff1916145b80610682575061068182611485565b5b9050919050565b60606000805461069890612d79565b80601f01602080910402602001604051908101604052809291908181526020018280546106c490612d79565b80156107115780601f106106e657610100808354040283529160200191610711565b820191906000526020600020905b8154815290600101906020018083116106f457829003601f168201915b5050505050905090565b6000610726826114ef565b6004600083815260200190815260200160002060009054906101000a900473ffffffffffffffffffffffffffffffffffffffff169050919050565b600061076c82610c9b565b90508073ffffffffffffffffffffffffffffffffffffffff168373ffffffffffffffffffffffffffffffffffffffff1614156107dd576040517f08c379a00000000000000000000000000000000000000000000000000000000081526004016107d490612e1d565b60405180910390fd5b8073ffffffffffffffffffffffffffffffffffffffff166107fc61153a565b73ffffffffffffffffffffffffffffffffffffffff16148061082b575061082a8161082561153a565b6113f1565b5b61086a576040517f08c379a000000000000000000000000000000000000000000000000000000000815260040161086190612eaf565b60405180910390fd5b6108748383611542565b505050565b6060600c60008381526020019081526020016000208054806020026020016040519081016040528092919081815260200182805480156108d857602002820191906000526020600020905b8154815260200190600101908083116108c4575b50505050509050919050565b60085481565b60008214156108f857600080fd5b60075482111561090757600080fd5b600960008381526020019081526020016000206002015434101561092a57600080fd5b600073ffffffffffffffffffffffffffffffffffffffff16600b6000848152602001908152602001600020600083815260200190815260200160002060009054906101000a900473ffffffffffffffffffffffffffffffffffffffff1673ffffffffffffffffffffffffffffffffffffffff16146109a757600080fd5b60096000838152602001908152602001600020600401548111156109ca57600080fd5b60016009600084815260200190815260200160002060030160008282546109f19190612efe565b925050819055506001600a600084815260200190815260200160002060003373ffffffffffffffffffffffffffffffffffffffff1673ffffffffffffffffffffffffffffffffffffffff16815260200190815260200160002060006101000a81548160ff02191690831515021790555033600b6000848152602001908152602001600020600083815260200190815260200160002060006101000a81548173ffffffffffffffffffffffffffffffffffffffff021916908373ffffffffffffffffffffffffffffffffffffffff160217905550600c600083815260200190815260200160002081908060018154018082558091505060019003906000526020600020016000909190919091505560086000815480929190610b1190612f32565b9190505550610b22336008546115fb565b5050565b610b37610b3161153a565b82611619565b610b76576040517f08c379a0000000000000000000000000000000000000000000000000000000008152600401610b6d90612fed565b60405180910390fd5b610b818383836116ae565b505050565b600660009054906101000a900473ffffffffffffffffffffffffffffffffffffffff1673ffffffffffffffffffffffffffffffffffffffff163373ffffffffffffffffffffffffffffffffffffffff1614610be057600080fd5b6000600660009054906101000a900473ffffffffffffffffffffffffffffffffffffffff1673ffffffffffffffffffffffffffffffffffffffff1647604051610c289061303e565b60006040518083038185875af1925050503d8060008114610c65576040519150601f19603f3d011682016040523d82523d6000602084013e610c6a565b606091505b5050905080610c7857600080fd5b50565b610c9683838360405180602001604052806000815250611089565b505050565b600080610ca7836119a8565b9050600073ffffffffffffffffffffffffffffffffffffffff168173ffffffffffffffffffffffffffffffffffffffff161415610d19576040517f08c379a0000000000000000000000000000000000000000000000000000000008152600401610d109061309f565b60405180910390fd5b80915050919050565b60008073ffffffffffffffffffffffffffffffffffffffff168273ffffffffffffffffffffffffffffffffffffffff161415610d93576040517f08c379a0000000000000000000000000000000000000000000000000000000008152600401610d8a90613131565b60405180910390fd5b600360008373ffffffffffffffffffffffffffffffffffffffff1673ffffffffffffffffffffffffffffffffffffffff168152602001908152602001600020549050919050565b600660009054906101000a900473ffffffffffffffffffffffffffffffffffffffff1681565b60075481565b606060018054610e1590612d79565b80601f0160208091040260200160405190810160405280929190818152602001828054610e4190612d79565b8015610e8e5780601f10610e6357610100808354040283529160200191610e8e565b820191906000526020600020905b815481529060010190602001808311610e7157829003601f168201915b5050505050905090565b600660009054906101000a900473ffffffffffffffffffffffffffffffffffffffff1673ffffffffffffffffffffffffffffffffffffffff163373ffffffffffffffffffffffffffffffffffffffff1614610ef257600080fd5b60076000815480929190610f0590612f32565b9190505550604051806101000160405280600754815260200187815260200186815260200185815260200185815260200184815260200183815260200182815250600960006007548152602001908152602001600020600082015181600001556020820151816001019080519060200190610f81929190612270565b5060408201518160020155606082015181600301556080820151816004015560a0820151816005019080519060200190610fbc929190612270565b5060c0820151816006019080519060200190610fd9929190612270565b5060e0820151816007019080519060200190610ff6929190612270565b50905050505050505050565b600a6020528160005260406000206020528060005260406000206000915091509054906101000a900460ff1681565b61104361103c61153a565b83836119e5565b5050565b600b6020528160005260406000206020528060005260406000206000915091509054906101000a900473ffffffffffffffffffffffffffffffffffffffff1681565b61109a61109461153a565b83611619565b6110d9576040517f08c379a00000000000000000000000000000000000000000000000000000000081526004016110d090612fed565b60405180910390fd5b6110e584848484611b52565b50505050565b60606110f6826114ef565b6000611100611bae565b90506000815111611120576040518060200160405280600081525061114b565b8061112a84611bc5565b60405160200161113b92919061318d565b6040516020818303038152906040525b915050919050565b61115b6122f6565b60096000838152602001908152602001600020604051806101000160405290816000820154815260200160018201805461119490612d79565b80601f01602080910402602001604051908101604052809291908181526020018280546111c090612d79565b801561120d5780601f106111e25761010080835404028352916020019161120d565b820191906000526020600020905b8154815290600101906020018083116111f057829003601f168201915b5050505050815260200160028201548152602001600382015481526020016004820154815260200160058201805461124490612d79565b80601f016020809104026020016040519081016040528092919081815260200182805461127090612d79565b80156112bd5780601f10611292576101008083540402835291602001916112bd565b820191906000526020600020905b8154815290600101906020018083116112a057829003601f168201915b505050505081526020016006820180546112d690612d79565b80601f016020809104026020016040519081016040528092919081815260200182805461130290612d79565b801561134f5780601f106113245761010080835404028352916020019161134f565b820191906000526020600020905b81548152906001019060200180831161133257829003601f168201915b5050505050815260200160078201805461136890612d79565b80601f016020809104026020016040519081016040528092919081815260200182805461139490612d79565b80156113e15780601f106113b6576101008083540402835291602001916113e1565b820191906000526020600020905b8154815290600101906020018083116113c457829003601f168201915b5050505050815250509050919050565b6000600560008473ffffffffffffffffffffffffffffffffffffffff1673ffffffffffffffffffffffffffffffffffffffff16815260200190815260200160002060008373ffffffffffffffffffffffffffffffffffffffff1673ffffffffffffffffffffffffffffffffffffffff16815260200190815260200160002060009054906101000a900460ff16905092915050565b60007f01ffc9a7000000000000000000000000000000000000000000000000000000007bffffffffffffffffffffffffffffffffffffffffffffffffffffffff1916827bffffffffffffffffffffffffffffffffffffffffffffffffffffffff1916149050919050565b6114f881611c9d565b611537576040517f08c379a000000000000000000000000000000000000000000000000000000000815260040161152e9061309f565b60405180910390fd5b50565b600033905090565b816004600083815260200190815260200160002060006101000a81548173ffffffffffffffffffffffffffffffffffffffff021916908373ffffffffffffffffffffffffffffffffffffffff160217905550808273ffffffffffffffffffffffffffffffffffffffff166115b583610c9b565b73ffffffffffffffffffffffffffffffffffffffff167f8c5be1e5ebec7d5bd14f71427d1e84f3dd0314c0f7b2291e5b200ac8c7c3b92560405160405180910390a45050565b611615828260405180602001604052806000815250611cde565b5050565b60008061162583610c9b565b90508073ffffffffffffffffffffffffffffffffffffffff168473ffffffffffffffffffffffffffffffffffffffff161480611667575061166681856113f1565b5b806116a557508373ffffffffffffffffffffffffffffffffffffffff1661168d8461071b565b73ffffffffffffffffffffffffffffffffffffffff16145b91505092915050565b8273ffffffffffffffffffffffffffffffffffffffff166116ce82610c9b565b73ffffffffffffffffffffffffffffffffffffffff1614611724576040517f08c379a000000000000000000000000000000000000000000000000000000000815260040161171b90613223565b60405180910390fd5b600073ffffffffffffffffffffffffffffffffffffffff168273ffffffffffffffffffffffffffffffffffffffff161415611794576040517f08c379a000000000000000000000000000000000000000000000000000000000815260040161178b906132b5565b60405180910390fd5b6117a18383836001611d39565b8273ffffffffffffffffffffffffffffffffffffffff166117c182610c9b565b73ffffffffffffffffffffffffffffffffffffffff1614611817576040517f08c379a000000000000000000000000000000000000000000000000000000000815260040161180e90613223565b60405180910390fd5b6004600082815260200190815260200160002060006101000a81549073ffffffffffffffffffffffffffffffffffffffff02191690556001600360008573ffffffffffffffffffffffffffffffffffffffff1673ffffffffffffffffffffffffffffffffffffffff168152602001908152602001600020600082825403925050819055506001600360008473ffffffffffffffffffffffffffffffffffffffff1673ffffffffffffffffffffffffffffffffffffffff16815260200190815260200160002060008282540192505081905550816002600083815260200190815260200160002060006101000a81548173ffffffffffffffffffffffffffffffffffffffff021916908373ffffffffffffffffffffffffffffffffffffffff160217905550808273ffffffffffffffffffffffffffffffffffffffff168473ffffffffffffffffffffffffffffffffffffffff167fddf252ad1be2c89b69c2b068fc378daa952ba7f163c4a11628f55a4df523b3ef60405160405180910390a46119a38383836001611d3f565b505050565b60006002600083815260200190815260200160002060009054906101000a900473ffffffffffffffffffffffffffffffffffffffff169050919050565b8173ffffffffffffffffffffffffffffffffffffffff168373ffffffffffffffffffffffffffffffffffffffff161415611a54576040517f08c379a0000000000000000000000000000000000000000000000000000000008152600401611a4b90613321565b60405180910390fd5b80600560008573ffffffffffffffffffffffffffffffffffffffff1673ffffffffffffffffffffffffffffffffffffffff16815260200190815260200160002060008473ffffffffffffffffffffffffffffffffffffffff1673ffffffffffffffffffffffffffffffffffffffff16815260200190815260200160002060006101000a81548160ff0219169083151502179055508173ffffffffffffffffffffffffffffffffffffffff168373ffffffffffffffffffffffffffffffffffffffff167f17307eab39ab6107e8899845ad3d59bd9653f200f220920489ca2b5937696c3183604051611b45919061240c565b60405180910390a3505050565b611b5d8484846116ae565b611b6984848484611d45565b611ba8576040517f08c379a0000000000000000000000000000000000000000000000000000000008152600401611b9f906133b3565b60405180910390fd5b50505050565b606060405180602001604052806000815250905090565b606060006001611bd484611edc565b01905060008167ffffffffffffffff811115611bf357611bf26127e1565b5b6040519080825280601f01601f191660200182016040528015611c255781602001600182028036833780820191505090505b509050600082602001820190505b600115611c92578080600190039150507f3031323334353637383961626364656600000000000000000000000000000000600a86061a8153600a8581611c7c57611c7b6133d3565b5b0494506000851415611c8d57611c92565b611c33565b819350505050919050565b60008073ffffffffffffffffffffffffffffffffffffffff16611cbf836119a8565b73ffffffffffffffffffffffffffffffffffffffff1614159050919050565b611ce8838361202f565b611cf56000848484611d45565b611d34576040517f08c379a0000000000000000000000000000000000000000000000000000000008152600401611d2b906133b3565b60405180910390fd5b505050565b50505050565b50505050565b6000611d668473ffffffffffffffffffffffffffffffffffffffff1661224d565b15611ecf578373ffffffffffffffffffffffffffffffffffffffff1663150b7a02611d8f61153a565b8786866040518563ffffffff1660e01b8152600401611db19493929190613457565b602060405180830381600087803b158015611dcb57600080fd5b505af1925050508015611dfc57506040513d601f19601f82011682018060405250810190611df991906134b8565b60015b611e7f573d8060008114611e2c576040519150601f19603f3d011682016040523d82523d6000602084013e611e31565b606091505b50600081511415611e77576040517f08c379a0000000000000000000000000000000000000000000000000000000008152600401611e6e906133b3565b60405180910390fd5b805181602001fd5b63150b7a0260e01b7bffffffffffffffffffffffffffffffffffffffffffffffffffffffff1916817bffffffffffffffffffffffffffffffffffffffffffffffffffffffff191614915050611ed4565b600190505b949350505050565b600080600090507a184f03e93ff9f4daa797ed6e38ed64bf6a1f0100000000000000008310611f3a577a184f03e93ff9f4daa797ed6e38ed64bf6a1f0100000000000000008381611f3057611f2f6133d3565b5b0492506040810190505b6d04ee2d6d415b85acef81000000008310611f77576d04ee2d6d415b85acef81000000008381611f6d57611f6c6133d3565b5b0492506020810190505b662386f26fc100008310611fa657662386f26fc100008381611f9c57611f9b6133d3565b5b0492506010810190505b6305f5e1008310611fcf576305f5e1008381611fc557611fc46133d3565b5b0492506008810190505b6127108310611ff4576127108381611fea57611fe96133d3565b5b0492506004810190505b60648310612017576064838161200d5761200c6133d3565b5b0492506002810190505b600a8310612026576001810190505b80915050919050565b600073ffffffffffffffffffffffffffffffffffffffff168273ffffffffffffffffffffffffffffffffffffffff16141561209f576040517f08c379a000000000000000000000000000000000000000000000000000000000815260040161209690613531565b60405180910390fd5b6120a881611c9d565b156120e8576040517f08c379a00000000000000000000000000000000000000000000000000000000081526004016120df9061359d565b60405180910390fd5b6120f6600083836001611d39565b6120ff81611c9d565b1561213f576040517f08c379a00000000000000000000000000000000000000000000000000000000081526004016121369061359d565b60405180910390fd5b6001600360008473ffffffffffffffffffffffffffffffffffffffff1673ffffffffffffffffffffffffffffffffffffffff16815260200190815260200160002060008282540192505081905550816002600083815260200190815260200160002060006101000a81548173ffffffffffffffffffffffffffffffffffffffff021916908373ffffffffffffffffffffffffffffffffffffffff160217905550808273ffffffffffffffffffffffffffffffffffffffff16600073ffffffffffffffffffffffffffffffffffffffff167fddf252ad1be2c89b69c2b068fc378daa952ba7f163c4a11628f55a4df523b3ef60405160405180910390a4612249600083836001611d3f565b5050565b6000808273ffffffffffffffffffffffffffffffffffffffff163b119050919050565b82805461227c90612d79565b90600052602060002090601f01602090048101928261229e57600085556122e5565b82601f106122b757805160ff19168380011785556122e5565b828001600101855582156122e5579182015b828111156122e45782518255916020019190600101906122c9565b5b5090506122f2919061233b565b5090565b60405180610100016040528060008152602001606081526020016000815260200160008152602001600081526020016060815260200160608152602001606081525090565b5b8082111561235457600081600090555060010161233c565b5090565b6000604051905090565b600080fd5b600080fd5b60007fffffffff0000000000000000000000000000000000000000000000000000000082169050919050565b6123a18161236c565b81146123ac57600080fd5b50565b6000813590506123be81612398565b92915050565b6000602082840312156123da576123d9612362565b5b60006123e8848285016123af565b91505092915050565b60008115159050919050565b612406816123f1565b82525050565b600060208201905061242160008301846123fd565b92915050565b600081519050919050565b600082825260208201905092915050565b60005b83811015612461578082015181840152602081019050612446565b83811115612470576000848401525b50505050565b6000601f19601f8301169050919050565b600061249282612427565b61249c8185612432565b93506124ac818560208601612443565b6124b581612476565b840191505092915050565b600060208201905081810360008301526124da8184612487565b905092915050565b6000819050919050565b6124f5816124e2565b811461250057600080fd5b50565b600081359050612512816124ec565b92915050565b60006020828403121561252e5761252d612362565b5b600061253c84828501612503565b91505092915050565b600073ffffffffffffffffffffffffffffffffffffffff82169050919050565b600061257082612545565b9050919050565b61258081612565565b82525050565b600060208201905061259b6000830184612577565b92915050565b6125aa81612565565b81146125b557600080fd5b50565b6000813590506125c7816125a1565b92915050565b600080604083850312156125e4576125e3612362565b5b60006125f2858286016125b8565b925050602061260385828601612503565b9150509250929050565b600081519050919050565b600082825260208201905092915050565b6000819050602082019050919050565b612642816124e2565b82525050565b60006126548383612639565b60208301905092915050565b6000602082019050919050565b60006126788261260d565b6126828185612618565b935061268d83612629565b8060005b838110156126be5781516126a58882612648565b97506126b083612660565b925050600181019050612691565b5085935050505092915050565b600060208201905081810360008301526126e5818461266d565b905092915050565b6126f6816124e2565b82525050565b600060208201905061271160008301846126ed565b92915050565b6000806040838503121561272e5761272d612362565b5b600061273c85828601612503565b925050602061274d85828601612503565b9150509250929050565b6000806000606084860312156127705761276f612362565b5b600061277e868287016125b8565b935050602061278f868287016125b8565b92505060406127a086828701612503565b9150509250925092565b6000602082840312156127c0576127bf612362565b5b60006127ce848285016125b8565b91505092915050565b600080fd5b600080fd5b7f4e487b7100000000000000000000000000000000000000000000000000000000600052604160045260246000fd5b61281982612476565b810181811067ffffffffffffffff82111715612838576128376127e1565b5b80604052505050565b600061284b612358565b90506128578282612810565b919050565b600067ffffffffffffffff821115612877576128766127e1565b5b61288082612476565b9050602081019050919050565b82818337600083830152505050565b60006128af6128aa8461285c565b612841565b9050828152602081018484840111156128cb576128ca6127dc565b5b6128d684828561288d565b509392505050565b600082601f8301126128f3576128f26127d7565b5b813561290384826020860161289c565b91505092915050565b60008060008060008060c0878903121561292957612928612362565b5b600087013567ffffffffffffffff81111561294757612946612367565b5b61295389828a016128de565b965050602061296489828a01612503565b955050604061297589828a01612503565b945050606087013567ffffffffffffffff81111561299657612995612367565b5b6129a289828a016128de565b935050608087013567ffffffffffffffff8111156129c3576129c2612367565b5b6129cf89828a016128de565b92505060a087013567ffffffffffffffff8111156129f0576129ef612367565b5b6129fc89828a016128de565b9150509295509295509295565b60008060408385031215612a2057612a1f612362565b5b6000612a2e85828601612503565b9250506020612a3f858286016125b8565b9150509250929050565b612a52816123f1565b8114612a5d57600080fd5b50565b600081359050612a6f81612a49565b92915050565b60008060408385031215612a8c57612a8b612362565b5b6000612a9a858286016125b8565b9250506020612aab85828601612a60565b9150509250929050565b600067ffffffffffffffff821115612ad057612acf6127e1565b5b612ad982612476565b9050602081019050919050565b6000612af9612af484612ab5565b612841565b905082815260208101848484011115612b1557612b146127dc565b5b612b2084828561288d565b509392505050565b600082601f830112612b3d57612b3c6127d7565b5b8135612b4d848260208601612ae6565b91505092915050565b60008060008060808587031215612b7057612b6f612362565b5b6000612b7e878288016125b8565b9450506020612b8f878288016125b8565b9350506040612ba087828801612503565b925050606085013567ffffffffffffffff811115612bc157612bc0612367565b5b612bcd87828801612b28565b91505092959194509250565b600082825260208201905092915050565b6000612bf582612427565b612bff8185612bd9565b9350612c0f818560208601612443565b612c1881612476565b840191505092915050565b600061010083016000830151612c3c6000860182612639565b5060208301518482036020860152612c548282612bea565b9150506040830151612c696040860182612639565b506060830151612c7c6060860182612639565b506080830151612c8f6080860182612639565b5060a083015184820360a0860152612ca78282612bea565b91505060c083015184820360c0860152612cc18282612bea565b91505060e083015184820360e0860152612cdb8282612bea565b9150508091505092915050565b60006020820190508181036000830152612d028184612c23565b905092915050565b60008060408385031215612d2157612d20612362565b5b6000612d2f858286016125b8565b9250506020612d40858286016125b8565b9150509250929050565b7f4e487b7100000000000000000000000000000000000000000000000000000000600052602260045260246000fd5b60006002820490506001821680612d9157607f821691505b60208210811415612da557612da4612d4a565b5b50919050565b7f4552433732313a20617070726f76616c20746f2063757272656e74206f776e6560008201527f7200000000000000000000000000000000000000000000000000000000000000602082015250565b6000612e07602183612432565b9150612e1282612dab565b604082019050919050565b60006020820190508181036000830152612e3681612dfa565b9050919050565b7f4552433732313a20617070726f76652063616c6c6572206973206e6f7420746f60008201527f6b656e206f776e6572206f7220617070726f76656420666f7220616c6c000000602082015250565b6000612e99603d83612432565b9150612ea482612e3d565b604082019050919050565b60006020820190508181036000830152612ec881612e8c565b9050919050565b7f4e487b7100000000000000000000000000000000000000000000000000000000600052601160045260246000fd5b6000612f09826124e2565b9150612f14836124e2565b925082821015612f2757612f26612ecf565b5b828203905092915050565b6000612f3d826124e2565b91507fffffffffffffffffffffffffffffffffffffffffffffffffffffffffffffffff821415612f7057612f6f612ecf565b5b600182019050919050565b7f4552433732313a2063616c6c6572206973206e6f7420746f6b656e206f776e6560008201527f72206f7220617070726f76656400000000000000000000000000000000000000602082015250565b6000612fd7602d83612432565b9150612fe282612f7b565b604082019050919050565b6000602082019050818103600083015261300681612fca565b9050919050565b600081905092915050565b50565b600061302860008361300d565b915061303382613018565b600082019050919050565b60006130498261301b565b9150819050919050565b7f4552433732313a20696e76616c696420746f6b656e2049440000000000000000600082015250565b6000613089601883612432565b915061309482613053565b602082019050919050565b600060208201905081810360008301526130b88161307c565b9050919050565b7f4552433732313a2061646472657373207a65726f206973206e6f74206120766160008201527f6c6964206f776e65720000000000000000000000000000000000000000000000602082015250565b600061311b602983612432565b9150613126826130bf565b604082019050919050565b6000602082019050818103600083015261314a8161310e565b9050919050565b600081905092915050565b600061316782612427565b6131718185613151565b9350613181818560208601612443565b80840191505092915050565b6000613199828561315c565b91506131a5828461315c565b91508190509392505050565b7f4552433732313a207472616e736665722066726f6d20696e636f72726563742060008201527f6f776e6572000000000000000000000000000000000000000000000000000000602082015250565b600061320d602583612432565b9150613218826131b1565b604082019050919050565b6000602082019050818103600083015261323c81613200565b9050919050565b7f4552433732313a207472616e7366657220746f20746865207a65726f2061646460008201527f7265737300000000000000000000000000000000000000000000000000000000602082015250565b600061329f602483612432565b91506132aa82613243565b604082019050919050565b600060208201905081810360008301526132ce81613292565b9050919050565b7f4552433732313a20617070726f766520746f2063616c6c657200000000000000600082015250565b600061330b601983612432565b9150613316826132d5565b602082019050919050565b6000602082019050818103600083015261333a816132fe565b9050919050565b7f4552433732313a207472616e7366657220746f206e6f6e20455243373231526560008201527f63656976657220696d706c656d656e7465720000000000000000000000000000602082015250565b600061339d603283612432565b91506133a882613341565b604082019050919050565b600060208201905081810360008301526133cc81613390565b9050919050565b7f4e487b7100000000000000000000000000000000000000000000000000000000600052601260045260246000fd5b600081519050919050565b600082825260208201905092915050565b600061342982613402565b613433818561340d565b9350613443818560208601612443565b61344c81612476565b840191505092915050565b600060808201905061346c6000830187612577565b6134796020830186612577565b61348660408301856126ed565b8181036060830152613498818461341e565b905095945050505050565b6000815190506134b281612398565b92915050565b6000602082840312156134ce576134cd612362565b5b60006134dc848285016134a3565b91505092915050565b7f4552433732313a206d696e7420746f20746865207a65726f2061646472657373600082015250565b600061351b602083612432565b9150613526826134e5565b602082019050919050565b6000602082019050818103600083015261354a8161350e565b9050919050565b7f4552433732313a20746f6b656e20616c7265616479206d696e74656400000000600082015250565b6000613587601c83612432565b915061359282613551565b602082019050919050565b600060208201905081810360008301526135b68161357a565b905091905056fea26469706673582212207460c42d47715b9b56d01357244ecd300a0bee59851a8a9fe976d3d513d0036c64736f6c63430008090033",
  "linkReferences": {},
  "deployedLinkReferences": {}
}