{
  "_format": "hh-sol-artifact-1",
  "contractName": "TokenMaster",
  "sourceName": "contracts/TokenMaster.sol",
  "abi": [
    {
      "inputs": [
        {
          "internalType": "string",
          "name": "_name",
          "type": "string"
        },
        {
          "internalType": "string",
          "name": "_symbol",
          "type": "string"
        }
      ],
      "stateMutability": "nonpayable",
      "type": "constructor"
    },
    {
      "anonymous": false,
      "inputs": [
        {
          "indexed": true,
          "internalType": "address",
          "name": "owner",
          "type": "address"
        },
        {
          "indexed": true,
          "internalType": "address",
          "name": "approved",
          "type": "address"
        },
        {
          "indexed": true,
          "internalType": "uint256",
          "name": "tokenId",
          "type": "uint256"
        }
      ],
      "name": "Approval",
      "type": "event"
    },
    {
      "anonymous": false,
      "inputs": [
        {
          "indexed": true,
          "internalType": "address",
          "name": "owner",
          "type": "address"
        },
        {
          "indexed": true,
          "internalType": "address",
          "name": "operator",
          "type": "address"
        },
        {
          "indexed": false,
          "internalType": "bool",
          "name": "approved",
          "type": "bool"
        }
      ],
      "name": "ApprovalForAll",
      "type": "event"
    },
    {
      "anonymous": false,
      "inputs": [
        {
          "indexed": true,
          "internalType": "address",
          "name": "from",
          "type": "address"
        },
        {
          "indexed": true,
          "internalType": "address",
          "name": "to",
          "type": "address"
        },
        {
          "indexed": true,
          "internalType": "uint256",
          "name": "tokenId",
          "type": "uint256"
        }
      ],
      "name": "Transfer",
      "type": "event"
    },
    {
      "inputs": [
        {
          "internalType": "address",
          "name": "to",
          "type": "address"
        },
        {
          "internalType": "uint256",
          "name": "tokenId",
          "type": "uint256"
        }
      ],
      "name": "approve",
      "outputs": [],
      "stateMutability": "nonpayable",
      "type": "function"
    },
    {
      "inputs": [
        {
          "internalType": "address",
          "name": "owner",
          "type": "address"
        }
      ],
      "name": "balanceOf",
      "outputs": [
        {
          "internalType": "uint256",
          "name": "",
          "type": "uint256"
        }
      ],
      "stateMutability": "view",
      "type": "function"
    },
    {
      "inputs": [
        {
          "internalType": "uint256",
          "name": "tokenId",
          "type": "uint256"
        }
      ],
      "name": "getApproved",
      "outputs": [
        {
          "internalType": "address",
          "name": "",
          "type": "address"
        }
      ],
      "stateMutability": "view",
      "type": "function"
    },
    {
      "inputs": [
        {
          "internalType": "uint256",
          "name": "_id",
          "type": "uint256"
        }
      ],
      "name": "getOcassion",
      "outputs": [
        {
          "components": [
            {
              "internalType": "uint256",
              "name": "id",
              "type": "uint256"
            },
            {
              "internalType": "string",
              "name": "name",
              "type": "string"
            },
            {
              "internalType": "uint256",
              "name": "cost",
              "type": "uint256"
            },
            {
              "internalType": "uint256",
              "name": "tickets",
              "type": "uint256"
            },
            {
              "internalType": "uint256",
              "name": "maxTickets",
              "type": "uint256"
            },
            {
              "internalType": "string",
              "name": "date",
              "type": "string"
            },
            {
              "internalType": "string",
              "name": "time",
              "type": "string"
            },
            {
              "internalType": "string",
              "name": "location",
              "type": "string"
            }
          ],
          "internalType": "struct TokenMaster.Ocassion",
          "name": "",
          "type": "tuple"
        }
      ],
      "stateMutability": "view",
      "type": "function"
    },
    {
      "inputs": [
        {
          "internalType": "uint256",
          "name": "_id",
          "type": "uint256"
        }
      ],
      "name": "getSeatsTaken",
      "outputs": [
        {
          "internalType": "uint256[]",
          "name": "",
          "type": "uint256[]"
        }
      ],
      "stateMutability": "view",
      "type": "function"
    },
    {
      "inputs": [
        {
          "internalType": "uint256",
          "name": "",
          "type": "uint256"
        },
        {
          "internalType": "address",
          "name": "",
          "type": "address"
        }
      ],
      "name": "hasBought",
      "outputs": [
        {
          "internalType": "bool",
          "name": "",
          "type": "bool"
        }
      ],
      "stateMutability": "view",
      "type": "function"
    },
    {
      "inputs": [
        {
          "internalType": "address",
          "name": "owner",
          "type": "address"
        },
        {
          "internalType": "address",
          "name": "operator",
          "type": "address"
        }
      ],
      "name": "isApprovedForAll",
      "outputs": [
        {
          "internalType": "bool",
          "name": "",
          "type": "bool"
        }
      ],
      "stateMutability": "view",
      "type": "function"
    },
    {
      "inputs": [
        {
          "internalType": "string",
          "name": "_name",
          "type": "string"
        },
        {
          "internalType": "uint256",
          "name": "_cost",
          "type": "uint256"
        },
        {
          "internalType": "uint256",
          "name": "_maxTickets",
          "type": "uint256"
        },
        {
          "internalType": "string",
          "name": "_date",
          "type": "string"
        },
        {
          "internalType": "string",
          "name": "_time",
          "type": "string"
        },
        {
          "internalType": "string",
          "name": "_location",
          "type": "string"
        }
      ],
      "name": "list",
      "outputs": [],
      "stateMutability": "nonpayable",
      "type": "function"
    },
    {
      "inputs": [
        {
          "internalType": "uint256",
          "name": "_id",
          "type": "uint256"
        },
        {
          "internalType": "uint256",
          "name": "_seat",
          "type": "uint256"
        }
      ],
      "name": "mint",
      "outputs": [],
      "stateMutability": "payable",
      "type": "function"
    },
    {
      "inputs": [],
      "name": "name",
      "outputs": [
        {
          "internalType": "string",
          "name": "",
          "type": "string"
        }
      ],
      "stateMutability": "view",
      "type": "function"
    },
    {
      "inputs": [],
      "name": "owner",
      "outputs": [
        {
          "internalType": "address",
          "name": "",
          "type": "address"
        }
      ],
      "stateMutability": "view",
      "type": "function"
    },
    {
      "inputs": [
        {
          "internalType": "uint256",
          "name": "tokenId",
          "type": "uint256"
        }
      ],
      "name": "ownerOf",
      "outputs": [
        {
          "internalType": "address",
          "name": "",
          "type": "address"
        }
      ],
      "stateMutability": "view",
      "type": "function"
    },
    {
      "inputs": [
        {
          "internalType": "address",
          "name": "from",
          "type": "address"
        },
        {
          "internalType": "address",
          "name": "to",
          "type": "address"
        },
        {
          "internalType": "uint256",
          "name": "tokenId",
          "type": "uint256"
        }
      ],
      "name": "safeTransferFrom",
      "outputs": [],
      "stateMutability": "nonpayable",
      "type": "function"
    },
    {
      "inputs": [
        {
          "internalType": "address",
          "name": "from",
          "type": "address"
        },
        {
          "internalType": "address",
          "name": "to",
          "type": "address"
        },
        {
          "internalType": "uint256",
          "name": "tokenId",
          "type": "uint256"
        },
        {
          "internalType": "bytes",
          "name": "data",
          "type": "bytes"
        }
      ],
      "name": "safeTransferFrom",
      "outputs": [],
      "stateMutability": "nonpayable",
      "type": "function"
    },
    {
      "inputs": [
        {
          "internalType": "uint256",
          "name": "",
          "type": "uint256"
        },
        {
          "internalType": "uint256",
          "name": "",
          "type": "uint256"
        }
      ],
      "name": "seatTaken",
      "outputs": [
        {
          "internalType": "address",
          "name": "",
          "type": "address"
        }
      ],
      "stateMutability": "view",
      "type": "function"
    },
    {
      "inputs": [
        {
          "internalType": "address",
          "name": "operator",
          "type": "address"
        },
        {
          "internalType": "bool",
          "name": "approved",
          "type": "bool"
        }
      ],
      "name": "setApprovalForAll",
      "outputs": [],
      "stateMutability": "nonpayable",
      "type": "function"
    },
    {
      "inputs": [
        {
          "internalType": "bytes4",
          "name": "interfaceId",
          "type": "bytes4"
        }
      ],
      "name": "supportsInterface",
      "outputs": [
        {
          "internalType": "bool",
          "name": "",
          "type": "bool"
        }
      ],
      "stateMutability": "view",
      "type": "function"
    },
    {
      "inputs": [],
      "name": "symbol",
      "outputs": [
        {
          "internalType": "string",
          "name": "",
          "type": "string"
        }
      ],
      "stateMutability": "view",
      "type": "function"
    },
    {
      "inputs": [
        {
          "internalType": "uint256",
          "name": "tokenId",
          "type": "uint256"
        }
      ],
      "name": "tokenURI",
      "outputs": [
        {
          "internalType": "string",
          "name": "",
          "type": "string"
        }
      ],
      "stateMutability": "view",
      "type": "function"
    },
    {
      "inputs": [],
      "name": "totalOccasions",
      "outputs": [
        {
          "internalType": "uint256",
          "name": "",
          "type": "uint256"
        }
      ],
      "stateMutability": "view",
      "type": "function"
    },
    {
      "inputs": [],
      "name": "totalSupply",
      "outputs": [
        {
          "internalType": "uint256",
          "name": "",
          "type": "uint256"
        }
      ],
      "stateMutability": "view",
      "type": "function"
    },
    {
      "inputs": [
        {
          "internalType": "address",
          "name": "from",
          "type": "address"
        },
        {
          "internalType": "address",
          "name": "to",
          "type": "address"
        },
        {
          "internalType": "uint256",
          "name": "tokenId",
          "type": "uint256"
        }
      ],
      "name": "transferFrom",
      "outputs": [],
      "stateMutability": "nonpayable",
      "type": "function"
    },
    {
      "inputs": [],
      "name": "withdraw",
      "outputs": [],
      "stateMutability": "nonpayable",
      "type": "function"
    }
  ],
  "bytecode": "0x60806040523480156200001157600080fd5b5060405162002112380380620021128339810160408190526200003491620001f4565b8151829082906200004d90600090602085019062000081565b5080516200006390600190602084019062000081565b5050600680546001600160a01b03191633179055506200029b915050565b8280546200008f906200025e565b90600052602060002090601f016020900481019282620000b35760008555620000fe565b82601f10620000ce57805160ff1916838001178555620000fe565b82800160010185558215620000fe579182015b82811115620000fe578251825591602001919060010190620000e1565b506200010c92915062000110565b5090565b5b808211156200010c576000815560010162000111565b634e487b7160e01b600052604160045260246000fd5b600082601f8301126200014f57600080fd5b81516001600160401b03808211156200016c576200016c62000127565b604051601f8301601f19908116603f0116810190828211818310171562000197576200019762000127565b81604052838152602092508683858801011115620001b457600080fd5b600091505b83821015620001d85785820183015181830184015290820190620001b9565b83821115620001ea5760008385830101525b9695505050505050565b600080604083850312156200020857600080fd5b82516001600160401b03808211156200022057600080fd5b6200022e868387016200013d565b935060208501519150808211156200024557600080fd5b5062000254858286016200013d565b9150509250929050565b600181811c908216806200027357607f821691505b602082108114156200029557634e487b7160e01b600052602260045260246000fd5b50919050565b611e6780620002ab6000396000f3fe6080604052600436106101405760003560e01c806370a08231116100b6578063a22cb4651161006f578063a22cb46514610395578063af296da1146103b5578063b88d4fde146103f6578063c87b56dd14610416578063e9403dba14610436578063e985e9c51461046357600080fd5b806370a08231146102cf5780638da5cb5b146102ef578063953865c11461030f57806395d89b41146103255780639a382f0f1461033a5780639cb04aef1461035a57600080fd5b806318160ddd1161010857806318160ddd146102235780631b2ef1ca1461024757806323b872dd1461025a5780633ccfd60b1461027a57806342842e0e1461028f5780636352211e146102af57600080fd5b806301ffc9a71461014557806306fdde031461017a578063081812fc1461019c578063095ea7b3146101d45780630ef7ec74146101f6575b600080fd5b34801561015157600080fd5b50610165610160366004611785565b6104ac565b60405190151581526020015b60405180910390f35b34801561018657600080fd5b5061018f6104fe565b60405161017191906117fa565b3480156101a857600080fd5b506101bc6101b736600461180d565b610590565b6040516001600160a01b039091168152602001610171565b3480156101e057600080fd5b506101f46101ef366004611842565b6105b7565b005b34801561020257600080fd5b5061021661021136600461180d565b6106d2565b604051610171919061186c565b34801561022f57600080fd5b5061023960085481565b604051908152602001610171565b6101f46102553660046118b0565b610734565b34801561026657600080fd5b506101f46102753660046118d2565b610867565b34801561028657600080fd5b506101f4610898565b34801561029b57600080fd5b506101f46102aa3660046118d2565b610912565b3480156102bb57600080fd5b506101bc6102ca36600461180d565b61092d565b3480156102db57600080fd5b506102396102ea36600461190e565b61098d565b3480156102fb57600080fd5b506006546101bc906001600160a01b031681565b34801561031b57600080fd5b5061023960075481565b34801561033157600080fd5b5061018f610a13565b34801561034657600080fd5b506101f46103553660046119d5565b610a22565b34801561036657600080fd5b50610165610375366004611a94565b600a60209081526000928352604080842090915290825290205460ff1681565b3480156103a157600080fd5b506101f46103b0366004611ac0565b610b35565b3480156103c157600080fd5b506101bc6103d03660046118b0565b600b6020908152600092835260408084209091529082529020546001600160a01b031681565b34801561040257600080fd5b506101f4610411366004611afc565b610b40565b34801561042257600080fd5b5061018f61043136600461180d565b610b78565b34801561044257600080fd5b5061045661045136600461180d565b610bec565b6040516101719190611b78565b34801561046f57600080fd5b5061016561047e366004611c21565b6001600160a01b03918216600090815260056020908152604080832093909416825291909152205460ff1690565b60006001600160e01b031982166380ac58cd60e01b14806104dd57506001600160e01b03198216635b5e139f60e01b145b806104f857506301ffc9a760e01b6001600160e01b03198316145b92915050565b60606000805461050d90611c4b565b80601f016020809104026020016040519081016040528092919081815260200182805461053990611c4b565b80156105865780601f1061055b57610100808354040283529160200191610586565b820191906000526020600020905b81548152906001019060200180831161056957829003601f168201915b5050505050905090565b600061059b82610eca565b506000908152600460205260409020546001600160a01b031690565b60006105c28261092d565b9050806001600160a01b0316836001600160a01b031614156106355760405162461bcd60e51b815260206004820152602160248201527f4552433732313a20617070726f76616c20746f2063757272656e74206f776e656044820152603960f91b60648201526084015b60405180910390fd5b336001600160a01b03821614806106515750610651813361047e565b6106c35760405162461bcd60e51b815260206004820152603d60248201527f4552433732313a20617070726f76652063616c6c6572206973206e6f7420746f60448201527f6b656e206f776e6572206f7220617070726f76656420666f7220616c6c000000606482015260840161062c565b6106cd8383610f29565b505050565b6000818152600c602090815260409182902080548351818402810184019094528084526060939283018282801561072857602002820191906000526020600020905b815481526020019060010190808311610714575b50505050509050919050565b8161073e57600080fd5b60075482111561074d57600080fd5b60008281526009602052604090206002015434101561076b57600080fd5b6000828152600b602090815260408083208484529091529020546001600160a01b03161561079857600080fd5b6000828152600960205260409020600401548111156107b657600080fd5b60008281526009602052604081206003018054600192906107d8908490611c9c565b90915550506000828152600a6020908152604080832033808552908352818420805460ff19166001908117909155868552600b8452828520868652845282852080546001600160a01b031916909217909155858452600c835290832080549182018155835290822001829055600880549161085283611cb3565b919050555061086333600854610f97565b5050565b6108713382610fb1565b61088d5760405162461bcd60e51b815260040161062c90611cce565b6106cd838383611030565b6006546001600160a01b031633146108af57600080fd5b6006546040516000916001600160a01b03169047908381818185875af1925050503d80600081146108fc576040519150601f19603f3d011682016040523d82523d6000602084013e610901565b606091505b505090508061090f57600080fd5b50565b6106cd83838360405180602001604052806000815250610b40565b6000818152600260205260408120546001600160a01b0316806104f85760405162461bcd60e51b8152602060048201526018602482015277115490cdcc8c4e881a5b9d985b1a59081d1bdad95b88125160421b604482015260640161062c565b60006001600160a01b0382166109f75760405162461bcd60e51b815260206004820152602960248201527f4552433732313a2061646472657373207a65726f206973206e6f7420612076616044820152683634b21037bbb732b960b91b606482015260840161062c565b506001600160a01b031660009081526003602052604090205490565b60606001805461050d90611c4b565b6006546001600160a01b03163314610a3957600080fd5b60078054906000610a4983611cb3565b9091555050604080516101008101825260075480825260208083018a81528385018a9052606084018990526080840189905260a0840188905260c0840187905260e08401869052600092835260098252939091208251815592518051929392610ab892600185019201906116d6565b5060408201516002820155606082015160038201556080820151600482015560a08201518051610af29160058401916020909101906116d6565b5060c08201518051610b0e9160068401916020909101906116d6565b5060e08201518051610b2a9160078401916020909101906116d6565b505050505050505050565b610863338383611194565b610b4a3383610fb1565b610b665760405162461bcd60e51b815260040161062c90611cce565b610b7284848484611263565b50505050565b6060610b8382610eca565b6000610b9a60408051602081019091526000815290565b90506000815111610bba5760405180602001604052806000815250610be5565b80610bc484611296565b604051602001610bd5929190611d1b565b6040516020818303038152906040525b9392505050565b610c3460405180610100016040528060008152602001606081526020016000815260200160008152602001600081526020016060815260200160608152602001606081525090565b600960008381526020019081526020016000206040518061010001604052908160008201548152602001600182018054610c6d90611c4b565b80601f0160208091040260200160405190810160405280929190818152602001828054610c9990611c4b565b8015610ce65780601f10610cbb57610100808354040283529160200191610ce6565b820191906000526020600020905b815481529060010190602001808311610cc957829003601f168201915b50505050508152602001600282015481526020016003820154815260200160048201548152602001600582018054610d1d90611c4b565b80601f0160208091040260200160405190810160405280929190818152602001828054610d4990611c4b565b8015610d965780601f10610d6b57610100808354040283529160200191610d96565b820191906000526020600020905b815481529060010190602001808311610d7957829003601f168201915b50505050508152602001600682018054610daf90611c4b565b80601f0160208091040260200160405190810160405280929190818152602001828054610ddb90611c4b565b8015610e285780601f10610dfd57610100808354040283529160200191610e28565b820191906000526020600020905b815481529060010190602001808311610e0b57829003601f168201915b50505050508152602001600782018054610e4190611c4b565b80601f0160208091040260200160405190810160405280929190818152602001828054610e6d90611c4b565b8015610eba5780601f10610e8f57610100808354040283529160200191610eba565b820191906000526020600020905b815481529060010190602001808311610e9d57829003601f168201915b5050505050815250509050919050565b6000818152600260205260409020546001600160a01b031661090f5760405162461bcd60e51b8152602060048201526018602482015277115490cdcc8c4e881a5b9d985b1a59081d1bdad95b88125160421b604482015260640161062c565b600081815260046020526040902080546001600160a01b0319166001600160a01b0384169081179091558190610f5e8261092d565b6001600160a01b03167f8c5be1e5ebec7d5bd14f71427d1e84f3dd0314c0f7b2291e5b200ac8c7c3b92560405160405180910390a45050565b610863828260405180602001604052806000815250611333565b600080610fbd8361092d565b9050806001600160a01b0316846001600160a01b0316148061100457506001600160a01b0380821660009081526005602090815260408083209388168352929052205460ff165b806110285750836001600160a01b031661101d84610590565b6001600160a01b0316145b949350505050565b826001600160a01b03166110438261092d565b6001600160a01b0316146110695760405162461bcd60e51b815260040161062c90611d4a565b6001600160a01b0382166110cb5760405162461bcd60e51b8152602060048201526024808201527f4552433732313a207472616e7366657220746f20746865207a65726f206164646044820152637265737360e01b606482015260840161062c565b826001600160a01b03166110de8261092d565b6001600160a01b0316146111045760405162461bcd60e51b815260040161062c90611d4a565b600081815260046020908152604080832080546001600160a01b03199081169091556001600160a01b0387811680865260038552838620805460001901905590871680865283862080546001019055868652600290945282852080549092168417909155905184937fddf252ad1be2c89b69c2b068fc378daa952ba7f163c4a11628f55a4df523b3ef91a4505050565b816001600160a01b0316836001600160a01b031614156111f65760405162461bcd60e51b815260206004820152601960248201527f4552433732313a20617070726f766520746f2063616c6c657200000000000000604482015260640161062c565b6001600160a01b03838116600081815260056020908152604080832094871680845294825291829020805460ff191686151590811790915591519182527f17307eab39ab6107e8899845ad3d59bd9653f200f220920489ca2b5937696c31910160405180910390a3505050565b61126e848484611030565b61127a84848484611366565b610b725760405162461bcd60e51b815260040161062c90611d8f565b606060006112a383611473565b600101905060008167ffffffffffffffff8111156112c3576112c3611929565b6040519080825280601f01601f1916602001820160405280156112ed576020820181803683370190505b5090508181016020015b600019016f181899199a1a9b1b9c1cb0b131b232b360811b600a86061a8153600a85049450846113265761132b565b6112f7565b509392505050565b61133d838361154b565b61134a6000848484611366565b6106cd5760405162461bcd60e51b815260040161062c90611d8f565b60006001600160a01b0384163b1561146857604051630a85bd0160e11b81526001600160a01b0385169063150b7a02906113aa903390899088908890600401611de1565b602060405180830381600087803b1580156113c457600080fd5b505af19250505080156113f4575060408051601f3d908101601f191682019092526113f191810190611e14565b60015b61144e573d808015611422576040519150601f19603f3d011682016040523d82523d6000602084013e611427565b606091505b5080516114465760405162461bcd60e51b815260040161062c90611d8f565b805181602001fd5b6001600160e01b031916630a85bd0160e11b149050611028565b506001949350505050565b60008072184f03e93ff9f4daa797ed6e38ed64bf6a1f0160401b83106114b25772184f03e93ff9f4daa797ed6e38ed64bf6a1f0160401b830492506040015b6d04ee2d6d415b85acef810000000083106114de576d04ee2d6d415b85acef8100000000830492506020015b662386f26fc1000083106114fc57662386f26fc10000830492506010015b6305f5e1008310611514576305f5e100830492506008015b612710831061152857612710830492506004015b6064831061153a576064830492506002015b600a83106104f85760010192915050565b6001600160a01b0382166115a15760405162461bcd60e51b815260206004820181905260248201527f4552433732313a206d696e7420746f20746865207a65726f2061646472657373604482015260640161062c565b6000818152600260205260409020546001600160a01b0316156116065760405162461bcd60e51b815260206004820152601c60248201527f4552433732313a20746f6b656e20616c7265616479206d696e74656400000000604482015260640161062c565b6000818152600260205260409020546001600160a01b03161561166b5760405162461bcd60e51b815260206004820152601c60248201527f4552433732313a20746f6b656e20616c7265616479206d696e74656400000000604482015260640161062c565b6001600160a01b038216600081815260036020908152604080832080546001019055848352600290915280822080546001600160a01b0319168417905551839291907fddf252ad1be2c89b69c2b068fc378daa952ba7f163c4a11628f55a4df523b3ef908290a45050565b8280546116e290611c4b565b90600052602060002090601f016020900481019282611704576000855561174a565b82601f1061171d57805160ff191683800117855561174a565b8280016001018555821561174a579182015b8281111561174a57825182559160200191906001019061172f565b5061175692915061175a565b5090565b5b80821115611756576000815560010161175b565b6001600160e01b03198116811461090f57600080fd5b60006020828403121561179757600080fd5b8135610be58161176f565b60005b838110156117bd5781810151838201526020016117a5565b83811115610b725750506000910152565b600081518084526117e68160208601602086016117a2565b601f01601f19169290920160200192915050565b602081526000610be560208301846117ce565b60006020828403121561181f57600080fd5b5035919050565b80356001600160a01b038116811461183d57600080fd5b919050565b6000806040838503121561185557600080fd5b61185e83611826565b946020939093013593505050565b6020808252825182820181905260009190848201906040850190845b818110156118a457835183529284019291840191600101611888565b50909695505050505050565b600080604083850312156118c357600080fd5b50508035926020909101359150565b6000806000606084860312156118e757600080fd5b6118f084611826565b92506118fe60208501611826565b9150604084013590509250925092565b60006020828403121561192057600080fd5b610be582611826565b634e487b7160e01b600052604160045260246000fd5b600067ffffffffffffffff8084111561195a5761195a611929565b604051601f8501601f19908116603f0116810190828211818310171561198257611982611929565b8160405280935085815286868601111561199b57600080fd5b858560208301376000602087830101525050509392505050565b600082601f8301126119c657600080fd5b610be58383356020850161193f565b60008060008060008060c087890312156119ee57600080fd5b863567ffffffffffffffff80821115611a0657600080fd5b611a128a838b016119b5565b975060208901359650604089013595506060890135915080821115611a3657600080fd5b611a428a838b016119b5565b94506080890135915080821115611a5857600080fd5b611a648a838b016119b5565b935060a0890135915080821115611a7a57600080fd5b50611a8789828a016119b5565b9150509295509295509295565b60008060408385031215611aa757600080fd5b82359150611ab760208401611826565b90509250929050565b60008060408385031215611ad357600080fd5b611adc83611826565b915060208301358015158114611af157600080fd5b809150509250929050565b60008060008060808587031215611b1257600080fd5b611b1b85611826565b9350611b2960208601611826565b925060408501359150606085013567ffffffffffffffff811115611b4c57600080fd5b8501601f81018713611b5d57600080fd5b611b6c8782356020840161193f565b91505092959194509250565b602081528151602082015260006020830151610100806040850152611ba16101208501836117ce565b91506040850151606085015260608501516080850152608085015160a085015260a0850151601f19808685030160c0870152611bdd84836117ce565b935060c08701519150808685030160e0870152611bfa84836117ce565b935060e0870151915080868503018387015250611c1783826117ce565b9695505050505050565b60008060408385031215611c3457600080fd5b611c3d83611826565b9150611ab760208401611826565b600181811c90821680611c5f57607f821691505b60208210811415611c8057634e487b7160e01b600052602260045260246000fd5b50919050565b634e487b7160e01b600052601160045260246000fd5b600082821015611cae57611cae611c86565b500390565b6000600019821415611cc757611cc7611c86565b5060010190565b6020808252602d908201527f4552433732313a2063616c6c6572206973206e6f7420746f6b656e206f776e6560408201526c1c881bdc88185c1c1c9bdd9959609a1b606082015260800190565b60008351611d2d8184602088016117a2565b835190830190611d418183602088016117a2565b01949350505050565b60208082526025908201527f4552433732313a207472616e736665722066726f6d20696e636f72726563742060408201526437bbb732b960d91b606082015260800190565b60208082526032908201527f4552433732313a207472616e7366657220746f206e6f6e20455243373231526560408201527131b2b4bb32b91034b6b83632b6b2b73a32b960711b606082015260800190565b6001600160a01b0385811682528416602082015260408101839052608060608201819052600090611c17908301846117ce565b600060208284031215611e2657600080fd5b8151610be58161176f56fea2646970667358221220ee0c837ac33c0c185c299c610625beb42f9bd6472e58c35f2a6386f9f3ad5c2964736f6c63430008090033",
  "linkReferences": {},
  "deployedLinkReferences": {}
}